:020000040800F2
:1000000070060020650100088B0100088D010008C2
:1000100000000000000000000000000000000000E0
:100020000000000000000000000000008F01000838
:10003000000000000000000091010008C903000852
:100040009501000895010008950100089501000838
:100050009501000895010008950100089501000828
:100060009501000895010008950100089501000818
:100070009501000895010008950100089501000808
:100080009501000895010008000000009501000896
:1000900095010008950100089501000895010008E8
:1000A00095010008950100089501000895010008D8
:1000B0009501000800000000950100080000000004
:1000C00000F002F800F03EF80CA030C80838241800
:1000D0002D18671EA246AB4654465D46AC4201D180
:1000E00000F030F87E460F3EB6460FCC0126334274
:1000F00000D0FB1A3343A246AB4618470407000062
:1001000024070000103A02D378C878C1FAD8520701
:1001100001D330C830C101D504680C6070470000BD
:100120000023002400250026103A01D378C1FBD813
:10013000520700D330C100D50B6070471FB51FBDFB
:1001400010B510BD00F04BF81146FFF7F7FF00F0B7
:10015000FBF900F063F803B4FFF7F2FF03BC00F013
:1001600069F800000F4880F308880F480168090EFD
:100170000E4A914205D10E480E4901600E480F49C2
:1001800001600F4880470F480047FEE7FEE7FEE7A3
:10019000FEE7FEE7FEE700000B480C490C4A0D4B5A
:1001A0007047000070060020040000001F000000DF
:1001B0001810024001000000000001400000000093
:1001C00039040008C10000087000002070060020FB
:1001D000700200207002002070477047704775461B
:1001E00000F024F8AE46050069465346C008C0003A
:1001F000854618B020B5FFF7CFFF60BCB646002695
:100200000027C0C5C0C5C0C5C0C5C0C5C0C5C0C524
:10021000C0C5403D490849008D46704710B50446A9
:10022000C046C0462046FFF796FF10BD0048704705
:100230000800002001491820ABBEFEE7260002009E
:100240007047F0B50A6800231C4614E003269E4060
:100250000768B74307609D4007682F430760C5687C
:10026000B543C560CD799D40C6682E43C6609B1CD2
:10027000641C102C1CD01546E540ED07F7D00D7915
:100280006E1E012EE2D803269E408768B743876022
:100290004E799E408768374387600126A64087884D
:1002A000B74387808E79A640878837438780CDE71C
:1002B000F0BD01857047816170470000FF20000696
:1002C00003490A68824303208007101808607047BA
:1002D00020ED00E0054A002903D0116801431160B8
:1002E00070471168814311607047C0461410024086
:1002F000054A002903D01168014311607047116855
:10030000814311607047C0461C10024070B582B036
:10031000002301930093012214044348011F0D6838
:1003200025430D6054040D6825400095019D6D1C0A
:100330000195009D002D04D105252D03019EAE429F
:10034000F1D10D68254201D0009200E00093009B9E
:10035000012B23D1124B11241C6003680360036836
:1003600003607F23DB0305689D4305602304046865
:100370001C43046012060B6813430B600A68920169
:10038000FCD50168032291430160016802220A43FF
:10039000026001680C220A40082AFAD102B070BD3E
:1003A0000020024010B5401E010E01D0012010BDFA
:1003B000044C6060FFF782FF0020A06007212160ED
:1003C00010BDC04610E000E003480168002902D0DB
:1003D0000168491E0160704768000020B0B5124CEA
:1003E00020680C2101401148082912D12168890296
:1003F000090F8D1C2168C903890F08D0A16A0F223B
:100400000A40511C00F0F8F84543284601E008482E
:1004100068437749086020680006000F054A105CB1
:100420000A68C2400A60B0BD0410024000127A009F
:1004300000093D00EE07000880B51348026801215D
:100440000A4302604268114B134043600268104B3C
:10045000134003608A040368934303603F2212043D
:10046000436893434360C26A0F239A43C262FF22E8
:100470005432036B93430363426B8A43426300210C
:100480008160FFF743FF80BD001002400CB8FF08F9
:10049000FFFFF6FE02880123002902D01A430280E2
:1004A00070479A4302807047406A704741627047C4
:1004B00010B5038801229407A04205D0144CA04235
:1004C00002D0434CA04204D17024A3434C881C4367
:1004D00000E01C460F4B984205D003231B029C43AF
:1004E0000B89234300E0234603804B68C3620B88DB
:1004F0000385094BC3180A24E341072B06D8144689
:100500009C40E1231C4201D0897A0186828210BD81
:10051000002C01400010004000D4FEBFB0B50546DD
:100520002B4C00212046FFF7C1FF01212046FFF799
:10053000B1FF2046FFF7B8FFA842FAD300212046BA
:10054000FFF7A8FFB0BDC04600F044F800F016F871
:1005500000F028F87D2084000920C50610262846D2
:100560003146FFF7A6FE2046FFF7D8FF2846314662
:10057000FFF7A1FE2046FFF7D1FFEFE780B582B07D
:1005800001214804FFF7A6FE0548019010200090C5
:100590000920C0066946FFF754FE02B080BDC04680
:1005A0000103010080B584B002200121FFF7A0FE05
:1005B00001A90020088104480290044801900448E1
:1005C000FFF776FF04B080BDFFFF00007FBB000097
:1005D00000040040B0B5FFF701FF054D054C286849
:1005E000214600F009F8FFF7DDFE0028F7D1B0BD85
:1005F0000000002040420F0043088B421AD3002223
:1006000003098B4279D3030A8B425ED3030B8B42DF
:1006100042D3030C8B4227D30902FF2212BA030CE8
:100620008B4202D31212090203D0030B8B4233D345
:100630001AE0D3E0411A8041401C704703460B4347
:1006400071D443088B42F5D3002203098B4254D363
:10065000030A8B4239D3030B8B421DD3030C8B420D
:1006600002D394466EE0090AC30B8B4201D3CB033D
:10067000C01A5241830B8B4201D38B03C01A5241E3
:10068000430B8B4201D34B03C01A5241030B8B42E5
:1006900001D30B03C01A5241C30A8B4201D3CB02D0
:1006A000C01A5241830A8B4201D38B02C01A5241B5
:1006B000430A8B4201D34B02C01A5241030A8B42B8
:1006C00001D30B02C01A5241CDD2C3098B4201D3D0
:1006D000CB01C01A524183098B4201D38B01C01A4E
:1006E000524143098B4201D34B01C01A52410309C5
:1006F0008B4201D30B01C01A5241C3088B4201D374
:10070000CB00C01A524183088B4201D38B00C01A20
:10071000524143088B4201D34B00C01A5241411A47
:10072000524110007047CA0F00D04942031000D355
:100730004042534000229C4603098B422DD3030ABA
:100740008B4212D38901FC2212BA030A8B420CD3CA
:10075000890192118B4208D3890192118B4204D3F3
:10076000890137D0921100E08909C3098B4201D376
:10077000CB01C01A524183098B4201D38B01C01AAD
:10078000524143098B4201D34B01C01A5241030924
:100790008B4201D30B01C01A5241C3088B4201D3D3
:1007A000CB00C01A524183088B4201D38B00C01A80
:1007B0005241D9D243088B4201D34B00C01A524157
:1007C000411A00D201465241104663465B1000D3E5
:1007D0004042704763465B1000D3404201B50021A0
:1007E000004201D0C9430846C046C04602BD0000D1
:1007F00000000000000001020304060708090000D1
:100800002008000800000020080000000401000883
:1008100028080008080000206806000020010008E1
:08082000006CDC020000000086
:04000005080000C12E
:00000001FF
