:020000040800F2
:1000000048050020C5000008D1140008A51100080B
:1000100000000000000000000000000000000000E0
:100020000000000000000000000000001B15000898
:100030000000000000000000191500081D15000850
:10004000D700000800000000D7000008D700000813
:10005000D7000008D7000008D7000008D700000824
:1000600000000000D7000008D70000083101000898
:10007000D7000008D7000008D700000800000000E3
:10008000051600080000000000000000D70000086E
:1000900000000000D7000008D7000008D7000008C3
:1000A00000000000D700000800000000D700000892
:1000B0000348854600F02AF8004800475917000811
:1000C000480500200448804704480047FEE7FEE753
:1000D000FEE7FEE7FEE7FEE7A9150008B10000080D
:1000E00030B50B46014600202022012409E00D46D0
:1000F000D5409D4205D31D469540491B2546954058
:1001000040191546521E002DF1DC30BD064C01256C
:10011000064E05E0E36807CC2B430C3C98471034AF
:10012000B442F7D3FFF7C8FF9C190008BC190008B8
:1001300010B5024800F004F810BD000004010020D2
:10014000F0B4C16B0D6801680C680422066C13469C
:10015000B3402B420DD063070BD50B689B0602D42E
:100160000B6893430B60016C8A40C16B4A60C16AA3
:1001700019E00227B74002462F4001232032002F0A
:1001800015D0A70713D50C68A40604D40C680A255B
:10019000AC430C605370036C02219940C36B5960EF
:1001A00000211170816A002916D0F0BC0847082789
:1001B000B7402F4210D024070ED50C680E25AC4353
:1001C0000C60046C1946A140C46B6160836353707A
:1001D00000211170016BE6E7F0BC704731B500F00B
:1001E000B5F8009C0546601C00D0641C00F0AEF819
:1001F000401BA042FAD338BDF8B500238DE001249E
:100200009C40A44622407DD04C68022C01D0122C88
:100210000CD1DC08A40027183C6A5D07ED0E0F2600
:10022000AE40B4430E69AE4026433E6205685E00B0
:100230000324B4400F79A543BF07BF0FB7402F4336
:1002400007604D68012D05D0022D03D0112D01D07E
:10025000122D0ED18568CF68A543B7402F43876024
:1002600047686546AF430D79ED06ED0F9D403D4370
:100270004560C568A5438C68B4402C43C4604C6895
:10028000E40049D5284CA56901263543A561A46938
:100290009D0834400094254CAD002F19BC689D0783
:1002A0002E0F0F25B540AC430925ED06A84201D11C
:1002B00000250FE01E4DA84201D101250AE01D4D89
:1002C000A84201D1022505E01B4DA84201D103251A
:1002D00000E00525B5402543BD60184C25684E68F3
:1002E0009543F60300D51543256065684E68954330
:1002F000B60300D515436560A5684E689543F602C0
:1003000002D500E008E01543A560E5684E68954316
:10031000B60200D51543E5605B1C0A681446DC4054
:1003200000D06CE7F8BD0000001002400000014062
:100330000004004800080048000C00480004014088
:10034000002A01D0816170478162704701480068CE
:10035000704700000000002070B50246403253781C
:10036000202B1CD11378012B19D0012313702424C6
:100370005470046825689D432560046825681E0341
:10038000B5432560046825680D4325600068016851
:1003900019430160202050700020107070BD0220B1
:1003A00070BD70B5024640325378202B1BD11378B4
:1003B000012B18D0012414702423537003681D6886
:1003C000A5431D6005682B680F263602B34309025A
:1003D00019432960006801682143016020205070A2
:1003E0000020107070BD022070BD000070B50400C8
:1003F00006D02546403568780026002802D005E062
:10040000012070BD2E70204600F0A0F924206870F5
:10041000206801684908490001600F2160680906E9
:1004200088432168086121688A680120C0038243EB
:100430008A60E1680129A16808D021229202114353
:1004400022689160E168022902D005E00143F7E7E4
:1004500001212268C902516021684A680F4B1A4382
:100460004A602168CA688243CA606169206908439A
:10047000A169090208432168C860216AE06908434C
:1004800021680860206801680122114301606664E8
:10049000202068702663AE70002070BD00800002CE
:1004A000FFB5054604464035687883B0202873D1EF
:1004B0000C98002871D00D9800286ED0287801285B
:1004C0006AD001202870FFF741FF07460122009003
:1004D0001923D103204600F02DFF002876D12220D9
:1004E00068704020A870002666640C9860620D98C1
:1004F000608566630E980090019704A90EC9204696
:1005000000F09CFE002804D0606C2E70042860D09F
:100510005CE0618D09208002FF2905D9FF22228538
:1005200001231B06009006E0618D21850090208D3F
:100530000123C2B25B062046049900F0E9FE009751
:100540000022042120460E9B00F0F4FE00283DD13D
:100550002068416A606A421C62620170208D401E00
:1005600081B22185608D401E6085002921D1608D7A
:1005700000281ED000970022802120460E9B00F00C
:10058000D9FE002822D1608DFF2807D9FF222285BD
:1005900001231B06009608E02AE01AE0608D208502
:1005A0000096208D0123C2B25B062046049900F01C
:1005B000AFFE608D0028C2D13A4620460E9900F069
:1005C000DDFE002807D0606C042802D0032007B0AD
:1005D000F0BD0120FBE721682020C86121684A683E
:1005E000044B1A404A606870AE702E700020EEE72F
:1005F0000220ECE700E800FEFFB505460446403562
:10060000687883B0202876D10C98002874D00D9893
:10061000002871D0287801286DD001202870FFF7BC
:1006200095FE0746012200901923D103204600F0D1
:1006300081FE002853D1212068704020A870002638
:1006400066640C9860620D98608566630E980090F1
:10065000019704A90EC9204600F025FE002804D009
:10066000606C2E7004286AD039E0608DFF2805D9AF
:10067000FF22228501231B06009606E0608D20855F
:100680000096208D0123C2B25B062046049900F03B
:100690003FFE3A4620460E9900F097FE002803D010
:1006A000606C04284BD01AE0606A411C61622168CA
:1006B00000788862608D401E6085208D401E000499
:1006C000000C208524D1608D002821D000970022C5
:1006D000802120460E9B00F02DFE002802D0032032
:1006E00007B0F0BD608DFF2807D9FF2222850123C6
:1006F0001B06009608E024E021E0608D208500962E
:10070000208D0123C2B25B062046049900F000FE52
:10071000608D0028BDD13A4620460E9900F02EFE8D
:100720000028BDD120682021C16120684268064BA5
:100730001A4042606970AE702E700020D0E7012030
:10074000CEE70220CCE7000000E800FE00B500681C
:100750000F4987B0884218D1032040020090122030
:1007600001900120029003200390042004900920AE
:100770006946C006FFF740FD0648C26901214905E8
:100780000A43C261C0690840059007B000BD00007F
:10079000005400400010024002480168491C0160FA
:1007A000704700000000002010B5064801681022C4
:1007B00011430160002000F007F800F017F8002056
:1007C00010BD00000020024010B5044600F042F9C0
:1007D0007D21C900FFF784FC00F036FB0022214692
:1007E000501E00F029F8002010BD000008B50C488C
:1007F00081690122114381618069104000220090CB
:100800001146501F00F018F800221146901E00F00B
:1008100013F800221146501E00F00EF808BD00002B
:1008200000100240C106C90E01208840014908603D
:100830007047000000E100E010B500F04BFE10BD75
:10084000F8B505460068354CC00352D5E06900266E
:10085000C00007D4E16920040143E161E16901407E
:10086000012600912E480168C90510D4016882153F
:1008700011430160FFF76AFD074604E0FFF766FDDC
:10088000C01B642824D826480068C005F6D5206A15
:1008900003273F02384020D06968394081421CD08C
:1008A000206A226AB843012109040A432262226AAB
:1008B0008A4322622062C0070FD0FFF747FD0090F5
:1008C00008E0FFF743FD0099411A1648814201D91B
:1008D0000320F8BD206A8007F3D5206A6968B84311
:1008E00008432062002E04D0E16901200007814303
:1008F000E1612878C00705D0206BA96880088000D6
:10090000084320632878800605D5206B1021884392
:10091000E968084320630020F8BD00000010024091
:100920000070004088130000F8B5054644480E46A4
:100930000068C007C00FB0420AD2414801684908A8
:100940004900314301600068C007C00FB0425CD16C
:1009500028783C4C800705D56068F0218843A96859
:10096000084360602878C0073FD06868012813D02A
:100970002168022813D08907002946DA61688908AE
:10098000890001436160FFF7E1FC696807460129BE
:100990000DD0022917D024E021688903ECE78901F2
:1009A000EAE7FFF7D3FCC11B2748814217D86068EC
:1009B0000007800F0128F4D117E0FFF7C7FCC11B27
:1009C000214881420BD860680007800F0228F4D1CB
:1009D0000BE0FFF7BBFCC11B1B48814201D9032080
:1009E000F8BD60680007800FF3D115480168C9079A
:1009F000C90FB1420BD90168490849003143016070
:100A00000068C007C00FB04201D00120F8BD2878AF
:100A1000400706D56068072109028843E968084352
:100A2000606000F01DF86168084A0906090F515C12
:100A3000C840074908600020FFF7C6FE0020F8BD47
:100A40000020024000100240881300008A190008AC
:100A500004000020014800687047000004000020E6
:100A600010B512A30FCB88B06C460FC413A30FCBE5
:100A70000FC416494A680C20134603401448042B3F
:100A80000FD0082B0DD193021B0F6C46E45CC96A92
:100A900004AB0907090F595CD20304D5FFF720FB0B
:100AA000604308B010BD0B486043FAE70203040539
:100AB000060708090A0B0C0D0E0F101001020304A3
:100AC00005060708090A0B0C0D0E0F100010024056
:100AD00000127A0000093D00FEB504460078D04DB2
:100AE000C00747D068680007800F012807D06868F2
:100AF0000007800F022809D16868C00306D528685E
:100B0000800337D5606800287ED033E0012062681A
:100B10000004012A11D08100002A01D0052A10D03A
:100B20002A6882432A602868884328606068002811
:100B300014D0FFF70BFC06460CE02968014329603E
:100B4000F4E72A680A432A60F7E7FFF7FFFB801BF8
:100B500064286FD828688003F7D50BE0FFF7F6FB11
:100B6000064604E0FFF7F2FB801B6428F1D82868F2
:100B70008003F7D420780126800700283BDA6868D4
:100B80000007800F07D068680007800F022809D18E
:100B90006868C00306D42868800715D5E068012876
:100BA00032D111E0E0680028286815D03043286071
:100BB000FFF7CCFB074604E0FFF7C8FBC01B022889
:100BC000C7D828688007F7D52868F82188432169A5
:100BD000C900084328600EE0400840002860FFF785
:100BE000B5FB074604E0FFF7B1FBC01B0228B0D8F5
:100BF00028688007F7D42078000724D5E06900280A
:100C0000686A10D0304300E008E16862FFF79EFB9D
:100C1000074604E0FFF79AFBC01B022899D8686AD0
:100C20008007F7D50FE0400840006862FFF78EFBB1
:100C3000074605E09DE0FFF789FBC01B022888D826
:100C4000686A8007F7D4207804274007002860DA14
:100C500000200190E869C00008D4E969B8060143A2
:100C6000E961E96901400120009101906D48016846
:100C7000C90511D40168821511430160FFF766FBB5
:100C8000009005E0FFF762FB0099401A642870D8D5
:100C900064480068C005F5D5A06801280AD000287E
:100CA00001D0052810D0286A400840002862286A30
:100CB000B84301E0286A30432862A068002812D0B7
:100CC000FFF744FB00900AE0286A38432862F1E706
:100CD000FFF73CFB0099411A5348814249D8286AE2
:100CE0008007F5D50DE0FFF731FB009006E0FFF738
:100CF0002DFB0099411A4C4881423AD8286A800756
:100D0000F5D40198002804D0E96901200007814347
:100D1000E9612078C00635D5606901280CD0401DF6
:100D2000686B23D038436863686B40084000686391
:100D3000FFF70CFB064622E0686B38436863686B7C
:100D400030436863FFF702FB064604E0FFF7FEFA54
:100D5000801B02285BD8686B8007F7D5686BF82189
:100D60008843A169C900084368630BE0B84368631E
:100D7000F4E74CE0FFF7EAFA801B022847D8686BDB
:100D80008007F7D4206A002846D069680907890FD0
:100D9000022943D0012636060228286805D0B04330
:100DA0002860FFF7D3FA044633E0B0432860FFF72A
:100DB000CDFA074604E0FFF7C9FAC01B022826D87F
:100DC00028688001F7D4E86AE16A00090001084355
:100DD000E862616AA06A084369683D22120491438F
:100DE00008436860286830432860FFF7AFFA04467C
:100DF00004E0FFF7ABFA001B022808D8286880013E
:100E0000F7D509E0FFF7A2FA001B022801D9032059
:100E1000FEBD28688001F5D40020FEBD0120FEBD86
:100E200000100240007000408813000004220449B2
:100E30000428086902D09043086170471043FBE71B
:100E400000E000E070470000094910B5401E8842EC
:100E500001D9012010BD074C60610321081F00F07B
:100E600039FB0020A06107202061002010BD000098
:100E7000FFFFFF0000E000E010B5FFF7E3FF10BD4B
:100E80007047704770B502462032137F012B1BD08C
:100E90000123137702245477046865687026B543EC
:100EA0006560046865680E68354365600468A56818
:100EB0008026B543A5600068846849680C43846057
:100EC00053770020107770BD022070BD70B504000C
:100ED00005D025462035687F002802D006E0012095
:100EE00070BD00202877204600F00AF802206877BD
:100EF000211D206800F092FB01206877002070BD62
:100F000008B50068094988420FD10948C269022121
:100F10000A43C261C06900220840009011461020B7
:100F2000FFF78AFC1020FFF77DFC08BD000400409D
:100F3000001002400268D36801210B43D3600068AF
:100F400002680A43026000207047F8B5054604466F
:100F50002035287F012817D001272F7702206877B6
:100F6000226890687726FF23B0431B029843906065
:100F70000868502837D00EDC202857D006DC00281F
:100F80004ED0102840D14EE00220F8BD302850D07D
:100F9000402839D13CE060282DD0702817D001229C
:100FA0001203801A0ED090422ED1CB684A6889680D
:100FB000206800F06FFB20688168012292031143D2
:100FC000816021E020688168C908C900F8E7CB6822
:100FD0004A688968206800F05DFB21688868B04332
:100FE0003043886010E0CA684968206800F065FBFB
:100FF0005021206806E0CA684968206800F06EFB4E
:101000006021206800F051FB6F7700202877F8BD41
:10101000CA684968206800F050FB40212068F1E769
:1010200000212068EEE710212068EBE720212068EE
:10103000E8E730212068E5E7704770B504460068AE
:1010400001690025C9438907002915DBC168C94327
:10105000890711D4E91E0161012020772068806989
:101060008007204602D0FFF7E7FF04E000F096F883
:10107000204600F094F8257720680169C9434907A4
:1010800017D4C168C943490713D40421C943016176
:1010900002202077206880698005800F204602D0DA
:1010A000FFF7CAFF04E000F079F8204600F077F877
:1010B000257720680169C943090716D4C168C94367
:1010C000090712D40821C943016104202077206850
:1010D000C0698007204602D0FFF7AEFF04E000F0B1
:1010E0005DF8204600F05BF8257720680169C94368
:1010F000C90617D4C168C943C90613D41021C9430E
:101100000161082020772068C0698005800F204693
:1011100002D0FFF791FF04E000F040F8204600F015
:101120003EF8257720680169C943C90708D1C1681D
:10113000C943C90704D1891E0161204600F030F877
:1011400020680169C943090609D4C168C943090671
:1011500005D48021C94301612046FFF791FE206834
:101160000169C943490609D4C168C943490605D480
:101170004021C9430161204600F013F8206801694D
:10118000C943890609D4C168C943890605D4202109
:10119000C94301612046FFF774FE70BD7047704778
:1011A00070477047FEE701688A69D243920701D40D
:1011B00000228A6200688169C943C90703D0816936
:1011C0000122114381617047F7B5044600680E465D
:1011D0008069C043C0062CD42027254640352068AE
:1011E0008069C04380060FD5701CF8D0002E05D052
:1011F000FFF7ACF80299401AB042F0D96F700020A6
:10120000A87028700320FEBD21681020C8612068E6
:10121000C7612046FFF7C7FF20684168064A1140B2
:101220004160042060646F700020A8702870012065
:10123000FEBD0020FEBD000000E800FEF8B504463B
:101240000120164640031D46DAB20090079F002396
:10125000204600F05DF83A462046069900F0B5F8C1
:10126000002803D0606C04281BD018E02846F5B293
:10127000012809D02168300A88623A46204606993A
:1012800000F0A3F80028EDD12068856200970022C5
:1012900040212046069B00F04DF8002800D0032096
:1012A000F8BD0120F8BDF8B50446012016464003FC
:1012B0001D46DAB2C3020090079F204600F028F8CE
:1012C0003A462046069900F080F8002803D0606C6A
:1012D00004281BD018E02846F5B2012809D021685F
:1012E000300A88623A462046069900F06EF80028D7
:1012F000EDD1206885620097002280212046069B60
:1013000000F018F8002800D00320F8BD0120F8BD37
:1013100070B50568049C68688905890D1204044E3F
:1013200011431943304021430143696070BD0000FF
:10133000009800FCF8B51C4617460E46054611E01D
:10134000601C0FD0002C05D0FFF700F80699401A5A
:10135000A04207D92020403568700020A87028706E
:101360000320F8BD286881693046884304D00020F6
:10137000B842E5D00020F8BD0120F9E770B5164667
:101380000D4604461AE0324629462046FFF71CFF68
:10139000002801D0012070BD002D04D0FEF7D6FF3B
:1013A000801BA8420AD9616C20200143616440344B
:1013B00060700020A0702070032070BD20688069DC
:1013C000C0438006DFD4002070BD70B516460D46C0
:1013D00004461CE0324629462046FFF7F5FE002869
:1013E00001D0012070BD681C11D0002D04D0FEF783
:1013F000ADFF801BA8420AD9616C202001436164C3
:10140000403460700020A0702070032070BD206800
:101410008069C0438007DDD4002070BD10B512483C
:101420001049016011494160002181600161416101
:1014300081610122C161C2600162FEF7D7FF00280D
:1014400000D0FEE700210848FEF786FF002800D004
:10145000FEE700210448FEF7A4FF002800D0FEE7C5
:1014600010BD000000540040080000200E090020BC
:1014700010B5144886B012490160002412498460F6
:101480004160046111498461C160FFF71FFD0028BC
:1014900000D0FEE701200003009069460948FFF7ED
:1014A00054FD002800D0FEE7049404A905480594E3
:1014B000FFF7E8FC002800D0FEE706B010BD0000F2
:1014C0000004004054000020BF120000E7030000A9
:1014D000704700008307FF22DB0E9A408907090E40
:1014E000994000280BDA0007000F083883080848E5
:1014F0009B001818C36993430B43C361704783086B
:1015000004489B001B1818689043084318607047F4
:1015100000ED00E000E400E07047704710B5FFF711
:101520003BF9FFF7A9FC10BD30B595B00320009042
:101530000120019003901020049000030990000105
:10154000022500240A9008950B946846FFF7C4FA18
:10155000002800D0FEE707200C900E9401210D9585
:101560000F940CA8FFF7E0F9002800D0FEE7212037
:1015700010901294139410A8FFF762F9002800D07D
:10158000FEE7FFF767FA7D21C900FEF7A9FDFFF727
:101590005BFC0420FFF74AFC00221146501EFFF7B7
:1015A0004BF915B030BD000013480168012211430A
:1015B00001604168114A114041600168104A1140C0
:1015C00001600168012292049143016041683F2259
:1015D000120491434160C16A09090901C162016BAA
:1015E000FF22143291430163416B49084900416372
:1015F0000021816070470000001002400CB8FF0815
:10160000FFFFF6FE10B50448FFF717FD02484C38FF
:1016100000F0DAF810BD00005400002070B5026838
:10162000174B184E984201D0B04203D17024A24308
:101630004C682243144C154D984208D0B04206D055
:10164000134EB04203D0A04201D0A84204D10326D9
:101650003602B243CE6832438026B2434E693243EB
:1016600002608A68C2620A688262984203D0A0421D
:1016700001D0A84201D1096901630121416170BD16
:10168000002C01400004004000440140004801409B
:101690000020004030B58468FF252D021B02134353
:1016A000AC430B432343836030BD826870239A436D
:1016B0000A4307210A438260704730B5036A046A0F
:1016C0006408640004628469F025AC43120122437B
:1016D0000A24A3430B438261036230BD30B5036A21
:1016E0001024A34303628469036A0F252D031203A8
:1016F000AC432243A024A343090119438261016240
:1017000030BD02E008C8121F08C1002AFAD1704794
:101710007047002001E001C1121F002AFBD1704771
:101720007FB57D25ED00012403AB6E4638C6234608
:10173000FEF7B6FE6846007B04B070BD3FB583B0CF
:101740007D25012406ABED0000930295019423460C
:10175000FEF752FF07B030BD86B0FFF725F8FFF760
:10176000E3FE17484269012189050A434261426943
:101770000A400592426949110A43426140690924BD
:101780000840E4060590002210212046FEF7D8FD0F
:10179000102000900120019000200290032003906F
:1017A00069462046FEF728FDFFF738FEFFF760FE8A
:1017B000044800F013F803484C30FFF7BBFBFEE78A
:1017C000001002400800002010B5044600F0C5F8E3
:1017D0000007010E204600F0D1F810BD10B50446F8
:1017E00063238022B421FFF7A9FF0120FEF7F6FC56
:1017F00000235E22B4212046FFF7A0FF5D22B42122
:101800002046FFF78DFF2421814306D009200022C6
:101810001021C006FEF794FD10BD0C2306221946C8
:10182000204600F07EF801232B22B4212046FFF74A
:1018300085FF01232C22B4212046FFF77FFF0E23D2
:101840002D22B4212046FFF779FF00232E22B42158
:101850002046FFF773FF01232F22B4212046FFF714
:101860006DFF05233022B4212046FFF767FF0123D7
:101870003122B4212046FFF761FF00233222B42138
:101880002046FFF75BFF00233322B4212046FFF7F9
:1018900055FF00233422B4212046FFF74FFF0023D9
:1018A0003522B4212046FFF749FF00235B22B421F3
:1018B0002046FFF743FF10235C22B4212046FFF7A8
:1018C0003DFF20235D22B4212046FFF737FF83230D
:1018D0005E22B4212046FFF731FF204600F001F8D8
:1018E00010BD10B50446F0237722B421FFF726FF80
:1018F000F0237622B4212046FFF720FF0023732235
:10190000B4212046FFF71AFF00237422B421204699
:10191000FFF714FFF0237522B4212046FFF70EFFD6
:1019200010BDFFB581B01E461746002411E06500CA
:1019300028464130C2B2B421029B0198FFF7FEFE57
:101940004235EAB23B46B4210198FFF7F7FE641C2A
:10195000E4B2B442EBD305B0F0BD70B50546002249
:10196000B421FFF7DDFE04460122B4212846FFF72B
:10197000D7FE010221430805000D70BD10B50B46CE
:101980007522B421FFF7DAFE10BD00000000000050
:10199000000001020304060708090000BC19000842
:1019A000000000200800000002170008C419000809
:1019B0000800002040050000121700080000000089
:0419C00000127A0097
:04000005080000B13E
:00000001FF
