:020000040800F2
:10000000B8040020C5000008BD0F00081D0D000841
:1000100000000000000000000000000000000000E0
:1000200000000000000000000000000007100008B1
:100030000000000000000000051000080910000882
:10004000D700000800000000D7000008D700000813
:10005000D7000008D7000008D7000008D700000824
:1000600000000000D7000008D7000008D7000008F3
:10007000D7000008D7000008D700000800000000E3
:10008000D70000080000000000000000D7000008B2
:1000900000000000D7000008D7000008D7000008C3
:1000A00000000000D700000800000000D700000892
:1000B0000348854600F02AF8004800472911000847
:1000C000B80400200448804704480047FEE7FEE7E4
:1000D000FEE7FEE7FEE7FEE791100008B10000082A
:1000E00030B50B46014600202022012409E00D46D0
:1000F000D5409D4205D31D469540491B2546954058
:1001000040191546521E002DF1DC30BD064C01256C
:10011000064E05E0E36807CC2B430C3C98471034AF
:10012000B442F7D3FFF7C8FF741100089411000818
:1001300031B500F0AFF8009C0546601C00D0641C8F
:1001400000F0A8F8401BA042FAD338BDF8B5002350
:100150008DE001249C40A44622407DD04C68022CB6
:1001600001D0122C0CD1DC08A40027183C6A5D07D2
:10017000ED0E0F26AE40B4430E69AE4026433E62FC
:1001800005685E000324B4400F79A543BF07BF0F85
:10019000B7402F4307604D68012D05D0022D03D0D5
:1001A000112D01D0122D0ED18568CF68A543B7401F
:1001B0002F43876047686546AF430D79ED06ED0F25
:1001C0009D403D434560C568A5438C68B4402C43C1
:1001D000C4604C68E40049D5284CA5690126354324
:1001E000A561A4699D0834400094254CAD002F19E9
:1001F000BC689D072E0F0F25B540AC430925ED06C1
:10020000A84201D100250FE01E4DA84201D10125D1
:100210000AE01D4DA84201D1022505E01B4DA84270
:1002200001D1032500E00525B5402543BD60184CEC
:1002300025684E689543F60300D51543256065682B
:100240004E689543B60300D515436560A5684E68B2
:100250009543F60202D500E008E01543A560E56885
:100260004E689543B60200D51543E5605B1C0A68ED
:100270001446DC4000D06CE7F8BD000000100240DE
:10028000000001400004004800080048000C00483D
:100290000004014001480068704700000000002091
:1002A00070B5024640325378202B1CD11378012BB5
:1002B00019D00123137024245470046825689D43C9
:1002C0002560046825681E03B54325600468256819
:1002D0000D432560006801681943016020205070BB
:1002E0000020107070BD022070BD70B50246403213
:1002F0005378202B1BD11378012B18D001241470B4
:100300002423537003681D68A5431D6005682B688E
:100310000F263602B34309021943296000680168B9
:1003200021430160202050700020107070BD022019
:1003300070BD000070B5040006D0254640356878D1
:100340000026002802D005E0012070BD2E70204656
:1003500000F0D6F824206870206801684908490038
:1003600001600F21606809068843216808612168DF
:100370008A680120C00382438A60E1680129A1687C
:1003800008D021229202114322689160E16802297B
:1003900002D005E00143F7E701212268C90251605C
:1003A00021684A680F4B1A434A602168CA68824331
:1003B000CA60616920690843A1690902084321688C
:1003C000C860216AE0690843216808602068016804
:1003D0000122114301606664202068702663AE70BC
:1003E000002070BD00800002FFB505460446403580
:1003F000687881B020287ED1287801287BD0012020
:100400002870FFF747FF0746012200901923D10308
:10041000204600F0E1FC00283FD121206870102028
:10042000A87000266664039860620498608566631D
:10043000618D01204003FF2903D9FF22228500900E
:1004400034E0618D2185009036E02046029900F06D
:10045000B1FC36E000F00BFD002803D0606C0428EE
:1004600047D01AE0606A411C6162017820688162AD
:10047000608D401E6085208D401E0004000C20858C
:100480001FD1608D00281CD00097002280212046BB
:100490000A9B00F0A1FC002802D0032005B0F0BDAB
:1004A000608DFF2805D9FF222285009601231B06B7
:1004B000CBE7608D20850096208D0123C2B25B06BC
:1004C000C3E7608D0A9900283A462046C2D100F061
:1004D000A7FC0028C2D121682020C86121684A6891
:1004E000064B1A404A606870AE702E700020D5E747
:1004F00001E00120D2E70220D0E7000000E800FE82
:1005000000B500680F4987B0884218D10320400227
:1005100000901220019001200290032003900420FB
:10052000049009206946C006FFF710FE0648C2691C
:10053000012149050A43C261C0690840059007B01E
:1005400000BD000000540040001002400248016855
:10055000491C0160704700000000002010B50648EB
:100560000168102211430160002000F007F800F03C
:1005700017F8002010BD00000020024010B504460E
:1005800000F038F97D21C900FFF7AAFD00F0AAFBB1
:1005900000222146501E00F01FF8002010BD000070
:1005A00008B50C48816901221143816180691040BE
:1005B000002200901146501F00F00EF80022114654
:1005C000901E00F009F800221146501E00F004F8B9
:1005D00008BD00000010024010B500F0F1FC10BD95
:1005E000F8B505460068354CC00352D5E0690026D1
:1005F000C00007D4E16920040143E161E1690140E1
:10060000012600912E480168C90510D401688215A1
:1006100011430160FFF73EFE074604E0FFF73AFE94
:10062000C01B642824D826480068C005F6D5206A77
:1006300003273F02384020D06968394081421CD0EE
:10064000206A226AB843012109040A432262226A0D
:100650008A4322622062C0070FD0FFF71BFE009082
:1006600008E0FFF717FE0099411A1648814201D9A8
:100670000320F8BD206A8007F3D5206A6968B84373
:1006800008432062002E04D0E16901200007814365
:10069000E1612878C00705D0206BA9688008800038
:1006A000084320632878800605D5206B10218843F5
:1006B000E968084320630020F8BD000000100240F4
:1006C0000070004088130000F8B5054644480E4607
:1006D0000068C007C00FB0420AD24148016849080B
:1006E0004900314301600068C007C00FB0425CD1CF
:1006F00028783C4C800705D56068F0218843A968BC
:10070000084360602878C0073FD06868012813D08C
:100710002168022813D08907002946DA6168890810
:10072000890001436160FFF7B5FD6968074601294B
:100730000DD0022917D024E021688903ECE7890154
:10074000EAE7FFF7A7FDC11B2748814217D8606879
:100750000007800F0128F4D117E0FFF79BFDC11BB4
:10076000214881420BD860680007800F0228F4D12D
:100770000BE0FFF78FFDC11B1B48814201D903200D
:10078000F8BD60680007800FF3D115480168C907FC
:10079000C90FB1420BD901684908490031430160D2
:1007A0000068C007C00FB04201D00120F8BD287812
:1007B000400706D56068072109028843E9680843B5
:1007C000606000F01DF86168084A0906090F515C75
:1007D000C840074908600020FFF7D0FE0020F8BDA0
:1007E000002002400010024088130000621100083F
:1007F0000400002001480068704700000400002049
:1008000010B512A30FCB88B06C460FC413A30FCB47
:100810000FC416494A680C20134603401448042BA1
:100820000FD0082B0DD193021B0F6C46E45CC96AF4
:1008300004AB0907090F595CD20304D5FFF750FC3C
:10084000604308B010BD0B486043FAE7020304059B
:10085000060708090A0B0C0D0E0F10100102030405
:1008600005060708090A0B0C0D0E0F1000100240B8
:1008700000127A0000093D00FEB504460078D04D14
:10088000C00747D068680007800F012807D0686854
:100890000007800F022809D16868C00306D52868C0
:1008A000800337D5606800287ED033E0012062687D
:1008B0000004012A11D08100002A01D0052A10D09D
:1008C0002A6882432A602868884328606068002874
:1008D00014D0FFF7DFFC06460CE0296801432960CD
:1008E000F4E72A680A432A60F7E7FFF7D3FC801B86
:1008F00064286FD828688003F7D50BE0FFF7CAFC9F
:10090000064604E0FFF7C6FC801B6428F1D828687F
:100910008003F7D420780126800700283BDA686836
:100920000007800F07D068680007800F022809D1F0
:100930006868C00306D42868800715D5E0680128D8
:1009400032D111E0E0680028286815D030432860D3
:10095000FFF7A0FC074604E0FFF79CFCC01B022841
:10096000C7D828688007F7D52868F8218843216907
:10097000C900084328600EE0400840002860FFF7E7
:1009800089FC074604E0FFF785FCC01B0228B0D8AD
:1009900028688007F7D42078000724D5E06900286C
:1009A000686A10D0304300E008E16862FFF772FC2B
:1009B000074604E0FFF76EFCC01B022899D8686A5E
:1009C0008007F7D50FE0400840006862FFF762FC3F
:1009D000074605E09DE0FFF75DFCC01B022888D8B4
:1009E000686A8007F7D4207804274007002860DA77
:1009F00000200190E869C00008D4E969B806014305
:100A0000E961E96901400120009101906D480168A8
:100A1000C90511D40168821511430160FFF73AFC42
:100A2000009005E0FFF736FC0099401A642870D862
:100A300064480068C005F5D5A06801280AD00028E0
:100A400001D0052810D0286A400840002862286A92
:100A5000B84301E0286A30432862A068002812D019
:100A6000FFF718FC00900AE0286A38432862F1E793
:100A7000FFF710FC0099411A5348814249D8286A6F
:100A80008007F5D50DE0FFF705FC009006E0FFF7C5
:100A900001FC0099411A4C4881423AD8286A8007E3
:100AA000F5D40198002804D0E969012000078143AA
:100AB000E9612078C00635D5606901280CD0401D59
:100AC000686B23D038436863686B400840006863F4
:100AD000FFF7E0FB064622E0686B38436863686B0B
:100AE00030436863FFF7D6FB064604E0FFF7D2FB0E
:100AF000801B02285BD8686B8007F7D5686BF821EC
:100B00008843A169C900084368630BE0B843686380
:100B1000F4E74CE0FFF7BEFB801B022847D8686B68
:100B20008007F7D4206A002846D069680907890F32
:100B3000022943D0012636060228286805D0B04392
:100B40002860FFF7A7FB044633E0B0432860FFF7B7
:100B5000A1FB074604E0FFF79DFBC01B022826D837
:100B600028688001F7D4E86AE16A000900010843B7
:100B7000E862616AA06A084369683D2212049143F1
:100B800008436860286830432860FFF783FB044609
:100B900004E0FFF77FFB001B022808D828688001CB
:100BA000F7D509E0FFF776FB001B022801D90320E7
:100BB000FEBD28688001F5D40020FEBD0120FEBDE9
:100BC000001002400070004088130000F8B50400D7
:100BD00007D0002625464035A662687F002802D04F
:100BE00005E00120F8BD2E77204600F04BF80223E7
:100BF0006B77206801684022914301600721E0681B
:100C00000902884201D9002201E0012212030F27C4
:100C10003F02B84202D0884200D0A662276B002F64
:100C200005D1884201D9236301E001202063A16836
:100C30006068636908432169194308430123A16976
:100C40005B0219400843E1690843216A0843A16A2D
:100C5000084321680860616B606AA36908431B0C44
:100C60000427E1683B40194308432168104348606A
:100C70002068C1697A029143C161266601206877C4
:100C80000020F8BD00B500680D4987B0884215D135
:100C90000C48826981140A4382618069084005908A
:100CA000E020009002200190002103200390029197
:100CB000049109206946C006FFF748FA07B000BD55
:100CC0000030014000100240042204490428086951
:100CD00002D09043086170471043FBE700E000E05A
:100CE00070470000094910B5401E884201D9012013
:100CF00010BD074C60610321081F00F061F900205E
:100D0000A06107202061002010BD0000FFFFFF0050
:100D100000E000E010B5FFF7E3FF10BDFEE701685B
:100D20008A69D243920701D400228A6200688169ED
:100D3000C943C90703D0816901221143816170470A
:100D4000F7B5044600680E468069C043C0062CD43F
:100D500020272546403520688069C04380060FD58E
:100D6000701CF8D0002E05D0FFF794FA0299401AB3
:100D7000B042F0D96F700020A87028700320FEBD2B
:100D800021681020C8612068C7612046FFF7C7FFAF
:100D900020684168064A11404160042060646F7019
:100DA0000020A87028700120FEBD0020FEBD0000BC
:100DB00000E800FE70B50568049C68688905890D27
:100DC0001204044E1143194330402143014369602A
:100DD00070BD0000009800FCF8B51C4617460E4692
:100DE000054611E0601C0FD0002C05D0FFF752FA29
:100DF0000699401AA04207D920204035687000208B
:100E0000A87028700320F8BD28688169304688439F
:100E100004D00020B842E5D00020F8BD0120F9E759
:100E200070B516460D4604461AE03246294620465D
:100E3000FFF786FF002801D0012070BD002D04D0EF
:100E4000FFF728FA801BA8420AD9616C20200143D1
:100E50006164403460700020A0702070032070BD79
:100E600020688069C0438006DFD4002070BD70B563
:100E700016460D4604461CE0324629462046FFF73A
:100E80005FFF002801D0012070BD681C11D0002D2B
:100E900004D0FFF7FFF9801BA8420AD9616C20201B
:100EA00001436164403460700020A0702070032012
:100EB00070BD20688069C0438007DDD4002070BD0C
:100EC00008B508484269012189050A43426142691F
:100ED0000A400092426949110A4342614069084050
:100EE000009008BD0010024010B51648144901607A
:100EF00015494160002181600161416181610122E8
:100F0000C161C2600162FFF715FA002803D0162103
:100F10000EA000F0EBF800210A48FFF7C1F9002805
:100F200003D01D2109A000F0E1F800210548FFF7DA
:100F3000DCF9002803D0242104A000F0D7F810BD6C
:100F400000540040080000200E0900202E2E2F53D0
:100F500072632F6932632E630000000010B51248DF
:100F600010490160FF2105314160002103228160A9
:100F700012020161C260012241615202826101627A
:100F800028224162C26181620722C2620163082194
:100F90004163FFF71BFE002803D01B2103A000F0D4
:100FA000A5F810BD00300140540000202E2E2F5314
:100FB00072632F7370692E63000000007047000099
:100FC0008307FF22DB0E9A408907090E994000280B
:100FD0000BDA0007000F0838830808489B00181830
:100FE000C36993430B43C3617047830804489B0064
:100FF0001B181868904308431860704700ED00E024
:1010000000E400E07047704710B5FFF79FFAFFF764
:1010100081FE10BD30B595B00320009001200190F5
:101020000390102004900003099000010225002481
:101030000A9008950B946846FFF71EFC002800D024
:10104000FEE707200C900E9401210D950F940CA83B
:10105000FFF73AFB002800D0FEE720201090139401
:1010600010A8FFF7BDFA002800D0FEE7FFF7C2FB8B
:101070007D21C900FFF734F8FFF734FE0420FFF7A5
:1010800023FE00221146501EFFF7A6FA15B030BD10
:10109000134801680122114301604168114A11405F
:1010A00041600168104A1140016001680122920408
:1010B0009143016041683F22120491434160C16A3B
:1010C00009090901C162016BFF22143291430163D6
:1010D000416B49084900416300218160704700006D
:1010E000001002400CB8FF08FFFFF6FEFEE702E02A
:1010F00008C8121F08C1002AFAD1704770470020A3
:1011000001E001C1121F002AFBD1704703B581B075
:10111000642100910146012302AA0248FFF764F905
:101120000EBD000008000020FFF718FAFFF772FF5D
:10113000FFF7C6FEFFF712FFFFF7D6FEF02000F024
:101140000AF86420FEF7F4FF002000F004F86420A1
:10115000FEF7EEFFF2E710B501464020FFF7D6FF9D
:1011600010BD00000000000000000102030406079B
:101170000809000094110008000000200800000089
:10118000EE1000089C11000808000020B0040000C8
:0C119000FE1000080000000000127A00B1
:04000005080000B13E
:00000001FF
