:020000040800F2
:1000000030050020C50000087D170008B50F000866
:1000100000000000000000000000000000000000E0
:10002000000000000000000000000000C7170008EA
:100030000000000000000000C5170008C9170008F4
:10004000D700000800000000D7000008D700000813
:10005000D7000008D7000008D7000008D700000824
:1000600000000000D7000008D7000008D7000008F3
:10007000D7000008D7000008D700000800000000E3
:10008000D70000080000000000000000D7000008B2
:1000900000000000D7000008D7000008B90F0008D2
:1000A00000000000D700000800000000D700000892
:1000B0000348854600F02AF800480047A91B0008BD
:1000C000300500200448804704480047FEE7FEE76B
:1000D000FEE7FEE7FEE7FEE775180008B10000083E
:1000E00030B50B46014600202022012409E00D46D0
:1000F000D5409D4205D31D469540491B2546954058
:1001000040191546521E002DF1DC30BD064C01256C
:10011000064E05E0E36807CC2B430C3C98471034AF
:10012000B442F7D3FFF7C8FF741C0008941C000802
:1001300070B50024014620314A78022A03D00421F8
:100140008163012416E0026813680E25AB43136037
:10015000026813685B085B0013600122056C13469C
:10016000AB40C56B6B604A7000220A70416B00297E
:1001700000D08847204670BD31B500F0B5F8009C2E
:100180000546601C00D0641C00F0AEF8401BA04285
:10019000FAD338BDF8B500238DE001249C40A44675
:1001A00022407DD04C68022C01D0122C0CD1DC08EE
:1001B000A40027183C6A5D07ED0E0F26AE40B4433D
:1001C0000E69AE4026433E6205685E000324B440DB
:1001D0000F79A543BF07BF0FB7402F4307604D6896
:1001E000012D05D0022D03D0112D01D0122D0ED1DD
:1001F0008568CF68A543B7402F4387604768654649
:10020000AF430D79ED06ED0F9D403D434560C56858
:10021000A5438C68B4402C43C4604C68E40049D5C5
:10022000284CA56901263543A561A4699D08344081
:100230000094254CAD002F19BC689D072E0F0F258B
:10024000B540AC430925ED06A84201D100250FE0D9
:100250001E4DA84201D101250AE01D4DA84201D141
:10026000022505E01B4DA84201D1032500E005252C
:10027000B5402543BD60184C25684E689543F6038C
:1002800000D51543256065684E689543B60300D5D3
:1002900015436560A5684E689543F60202D500E0F7
:1002A00008E01543A560E5684E689543B60200D5A1
:1002B0001543E5605B1C0A681446DC4000D06CE71F
:1002C000F8BD00000010024000000140000400489A
:1002D00000080048000C004800040140002A01D03A
:1002E0008161704781627047014800687047000073
:1002F0000400002070B5024640325378202B1CD1F8
:100300001378012B19D0012313702424547004682E
:1003100025689D432560046825681E03B543256054
:10032000046825680D432560006801681943016071
:10033000202050700020107070BD022070BD70B57C
:10034000024640325378202B1BD11378012B18D052
:10035000012414702423537003681D68A5431D6095
:1003600005682B680F263602B3430902194329603A
:100370000068016821430160202050700020107047
:1003800070BD022070BD7047704770B503689A69F0
:100390001968D40507D50C0605D5446C01252C43F6
:1003A00044642C02DC61530508D50B0606D5436C6A
:1003B000082423434364E3010468E361920508D5FC
:1003C000090606D5416C02221143416411020268FC
:1003D000D161416C0B22114202D0416C00F090FEC1
:1003E00070BD026891691268436B002B00D01847FA
:1003F0007047704770B5040006D0254640356878D0
:100400000026002802D005E0012070BD2E70204695
:1004100000F0D8F824206870206801684908490075
:1004200001600F216068090688432168086121681E
:100430008A680120C00382438A60E1680129A168BB
:1004400008D021229202114322689160E1680229BA
:1004500002D005E00143F7E701212268C90251609B
:1004600021684A680F4B1A434A602168CA68824370
:10047000CA60616920690843A169090208432168CB
:10048000C860216AE0690843216808602068016843
:100490000122114301606664202068702663AE70FB
:1004A000002070BD0080000270470000FFB50546C7
:1004B00004464035687881B020287ED1287801280C
:1004C0007BD001202870FFF70FFF07460122009024
:1004D0001923D103204601F01BF800283FD1212029
:1004E00068701020A8700026666403986062049803
:1004F00060856663618D01204003FF2903D9FF22D7
:100500002285009034E0618D2185009036E0204600
:10051000029900F0EBFF36E001F045F8002803D027
:10052000606C042847D01AE0606A411C616201785F
:1005300020688162608D401E6085208D401E000411
:10054000000C20851FD1608D00281CD00097002250
:10055000802120460A9B00F0DBFF002802D0032008
:1005600005B0F0BD608DFF2805D9FF2222850096D9
:1005700001231B06CBE7608D20850096208D01238B
:10058000C2B25B06C3E7608D0A9900283A4620464E
:10059000C2D100F0E1FF0028C2D121682020C8614B
:1005A00021684A68064B1A404A606870AE702E7027
:1005B0000020D5E701E00120D2E70220D0E70000CB
:1005C00000E800FE00B50068134987B0884220D1DA
:1005D000032040020090122001900120029003208D
:1005E00003900420049009206946C006FFF7D2FD5D
:1005F0000A48C269012149050A43C261C069002253
:10060000084005901146172000F05CF8172000F014
:100610004FF807B000BD0000005400400010024039
:100620007047704702480168491C0160704700002C
:100630000400002010B50648016810221143016033
:10064000002000F007F800F017F8002010BD0000AF
:100650000020024010B5044600F042F97D21C90097
:10066000FFF73EFD00F0CCFB00222146501E00F0BB
:1006700029F8002010BD000008B50C48816901224E
:100680001143816180691040002200901146501F83
:1006900000F018F800221146901E00F013F8002216
:1006A0001146501E00F00EF808BD00000010024078
:1006B000C106C90E0120884001490860704700004A
:1006C00000E100E010B501F05BF810BDF8B505469B
:1006D0000068354CC00352D5E0690026C00007D43D
:1006E000E16920040143E161E169014001260091D3
:1006F0002E480168C90510D40168821511430160B4
:10070000FFF7F2FD074604E0FFF7EEFDC01B64288B
:1007100024D826480068C005F6D5206A03273F0282
:10072000384020D06968394081421CD0206A226A52
:10073000B843012109040A432262226A8A432262E1
:100740002062C0070FD0FFF7CFFD009008E0FFF751
:10075000CBFD0099411A1648814201D90320F8BD0A
:10076000206A8007F3D5206A6968B843084320628D
:10077000002E04D0E169012000078143E16128785F
:10078000C00705D0206BA96880088000084320635B
:100790002878800605D5206B10218843E968084336
:1007A00020630020F8BD00000010024000700040EF
:1007B00088130000F8B5054644480E460068C00797
:1007C000C00FB0420AD2414801684908490031438C
:1007D00001600068C007C00FB0425CD128783C4C73
:1007E000800705D56068F0218843A96808436060E8
:1007F0002878C0073FD06868012813D021680228F4
:1008000013D08907002946DA616889088900014305
:100810006160FFF769FD6968074601290DD002296B
:1008200017D024E021688903ECE78901EAE7FFF7A4
:100830005BFDC11B2748814217D860680007800F05
:100840000128F4D117E0FFF74FFDC11B2148814279
:100850000BD860680007800F0228F4D10BE0FFF787
:1008600043FDC11B1B48814201D90320F8BD6068CC
:100870000007800FF3D115480168C907C90FB142BD
:100880000BD9016849084900314301600068C0077D
:10089000C00FB04201D00120F8BD2878400706D52E
:1008A0006068072109028843E9680843606000F036
:1008B0002DF86168084A0906090F515CC8400749CC
:1008C00008600020FFF7C6FE0020F8BD00200240AF
:1008D00000100240881300005C1C0008000000208B
:1008E00001480068704700000000002004480549E6
:1008F00000684968044A4905490F515CC84070477F
:1009000000000020001002406C1C000810B512A36B
:100910000FCB88B06C460FC413A30FCB0FC416497E
:100920004A680C20134603401448042B0FD0082BB0
:100930000DD193021B0F6C46E45CC96A04AB090736
:10094000090F595CD20304D5FFF7CAFB604308B016
:1009500010BD0B486043FAE70203040506070809C7
:100960000A0B0C0D0E0F10100102030405060708F8
:10097000090A0B0C0D0E0F100010024000127A0035
:1009800000093D00FEB504460078D04DC00747D0B1
:1009900068680007800F012807D068680007800F8B
:1009A000022809D16868C00306D52868800337D5B6
:1009B000606800287ED033E0012062680004012ACC
:1009C00011D08100002A01D0052A10D02A68824364
:1009D0002A602868884328606068002814D0FFF7E0
:1009E00083FC06460CE0296801432960F4E72A6885
:1009F0000A432A60F7E7FFF777FC801B64286FD86B
:100A000028688003F7D50BE0FFF76EFC064604E08C
:100A1000FFF76AFC801B6428F1D828688003F7D4AC
:100A200020780126800700283BDA68680007800FDD
:100A300007D068680007800F022809D16868C003E2
:100A400006D42868800715D5E068012832D111E066
:100A5000E0680028286815D030432860FFF744FC80
:100A6000074604E0FFF740FCC01B0228C7D82868EF
:100A70008007F7D52868F82188432169C900084311
:100A800028600EE0400840002860FFF72DFC074674
:100A900004E0FFF729FCC01B0228B0D828688007B3
:100AA000F7D42078000724D5E0690028686A10D0C0
:100AB000304300E008E16862FFF716FC074604E0F7
:100AC000FFF712FCC01B022899D8686A8007F7D587
:100AD0000FE0400840006862FFF706FC074605E0AB
:100AE0009DE0FFF701FCC01B022888D8686A8007D8
:100AF000F7D4207804274007002860DA002001900E
:100B0000E869C00008D4E969B8060143E961E96908
:100B100001400120009101906D480168C90511D480
:100B20000168821511430160FFF7DEFB009005E0CC
:100B3000FFF7DAFB0099401A642870D8644800680F
:100B4000C005F5D5A06801280AD0002801D00528E5
:100B500010D0286A400840002862286AB84301E0A3
:100B6000286A30432862A068002812D0FFF7BCFB37
:100B700000900AE0286A38432862F1E7FFF7B4FBE7
:100B80000099411A5348814249D8286A8007F5D50F
:100B90000DE0FFF7A9FB009006E0FFF7A5FB009929
:100BA000411A4C4881423AD8286A8007F5D4019806
:100BB000002804D0E969012000078143E961207819
:100BC000C00635D5606901280CD0401D686B23D064
:100BD00038436863686B400840006863FFF784FB34
:100BE000064622E0686B38436863686B304368638D
:100BF000FFF77AFB064604E0FFF776FB801B02282E
:100C00005BD8686B8007F7D5686BF8218843A169CA
:100C1000C900084368630BE0B8436863F4E74CE03D
:100C2000FFF762FB801B022847D8686B8007F7D468
:100C3000206A002846D069680907890F022943D035
:100C4000012636060228286805D0B0432860FFF741
:100C50004BFB044633E0B0432860FFF745FB0746F3
:100C600004E0FFF741FBC01B022826D8286880015A
:100C7000F7D4E86AE16A000900010843E862616AA2
:100C8000A06A084369683D221204914308436860E2
:100C9000286830432860FFF727FB044604E0FFF78D
:100CA00023FB001B022808D828688001F7D509E03B
:100CB000FFF71AFB001B022801D90320FEBD28689C
:100CC0008001F5D40020FEBD0120FEBD00100240D1
:100CD0000070004088130000F8B5040007D000261B
:100CE00025464035A662687F002802D005E0012035
:100CF000F8BD2E77204600F04BF802236B77206872
:100D000001684022914301600721E068090288429E
:100D100001D9002201E0012212030F273F02B8424D
:100D200002D0884200D0A662276B002F05D18842EE
:100D300001D9236301E001202063A1686068636931
:100D400008432169194308430123A1695B02194043
:100D50000843E1690843216A0843A16A08432168FE
:100D60000860616B606AA36908431B0C0427E16893
:100D70003B40194308432168104348602068C1691B
:100D80007A029143C1612666012068770020F8BD90
:100D900000B50068114987B088421CD110488269AB
:100DA00081140A43826182690A40059242694901BD
:100DB0000A434261406908400590F02000900220FB
:100DC00001900021032003900291049109206946BB
:100DD000C006FFF7DFF907B000BD0000003001409A
:100DE00000100240042204490428086902D09043FC
:100DF000086170471043FBE700E000E07047000027
:100E0000094910B5401E884201D9012010BD074C88
:100E100060610321081F00F0B3FC0020A0610720DF
:100E20002061002010BD0000FFFFFF0000E000E097
:100E300010B5FFF7E3FF10BD70B5040005D02546DF
:100E40006035687A002802D006E0012070BD0020DD
:100E50002872204600F026F8242068722068016875
:100E6000490849000160204600F0A0FD0128EDD0AE
:100E7000606A002802D0204600F02AFD2068416800
:100E80000122D20291434160206881680822914387
:100E9000816020680168012211430160204600F052
:100EA0007CFD70BD00B500680E4987B0884216D140
:100EB0000D488269012189030A43826180690840E3
:100EC00005900C2000900220019001210320039046
:100ED0000291049109206946C006FFF75BF907B04B
:100EE00000BD00000038014000100240FFB506467A
:100EF00004466036707A83B00D46202858D1002D04
:100F00000CD00598002809D00120A1680003814277
:100F100007D12069002804D1E80702D0012007B0DA
:100F2000F0BD307A012843D0012030720020E06605
:100F300021207072FFF7D8F90190274640370598B5
:100F400038820598788218E0788A401E7882069860
:100F50000090002280212046019B00F0B1FD002876
:100F600018D10120A1680003814202D12069002824
:100F700012D02168287808856D1C788A0028E3D172
:100F800006980090002240212046019B00F098FD29
:100F9000002808D00320C2E728882168C005C00DBA
:100FA0000885AD1CE9E72020707200203072B6E79A
:100FB0000220B4E7FEE7000010B50648006880692B
:100FC0004005400F034802D0FFF7DFF910BDFFF7DF
:100FD00008FA10BD7000002010B5406A01684A6828
:100FE0000123DB031A434A60826B00215163C26B09
:100FF0005163014640314A78602A02D0FFF7F9F97F
:1010000010BD20224A70FFF7BEF910BDF0B50346AF
:101010000022CE0740332824B025002E05D05E786C
:1010200042222746B74300D0F2228E0705D5442638
:101030005B7832439C4300D02A434B0701D5B82349
:101040001A4311238B4301D190231A4312238B435C
:1010500001D160210A4300680168914301600020CA
:10106000F0BD01688A69D243920701D400228A62E6
:1010700000688169C943C90703D08169012211430E
:1010800081617047F8B505460446403568782821E7
:101090008143206804D00821C16100202870F8BD78
:1010A0008169C903CF0F8169FE230E0C81681E4040
:1010B0008A05C168920D19408C46E168022912D157
:1010C0000621D3090E400B409E420BD1A16C491C56
:1010D000A164A16C0229E2D10021A1640823C361AB
:1010E000297007E0664604212046FFF78FFF0020A5
:1010F0002870324639462046FFF746F9F8BD000011
:10110000F8B50026054640350446AE702C48E0622E
:101110006685606C0843606468782027282823D09F
:101120006878292820D068782A281DD007212046F1
:10113000FFF76CFF6878602800D06F7026636663E5
:10114000206801684A041F49026817D501239B03E0
:101150009A430260A06B41632E70A06BFEF7E8FF1C
:1011600000281DD0A06B19E003212046FFF74EFF99
:1011700028206870266314486063E1E7120410D5E4
:1011800002680123DB039A430260E06B41632E7027
:10119000E06BFEF7CDFF002802D0E06B416B884783
:1011A000F8BD6878602804D02E702046FFF721F93A
:1011B000F8BD6F702E702046FFF7E5F8F8BD00000F
:1011C0000000FFFFD90F0008D513000870B50446D2
:1011D0001548E0620025256320222046403006465F
:1011E000427085706563480711D52068416A606A5E
:1011F000421C62620170208D002808D0401E2085AC
:10120000608D401E6085606C042108436064072186
:101210002046FFF7FBFE21681020C861357020468C
:10122000FFF742F970BD00000000FFFFF8B504466B
:10123000006820260F46C66121680820C861072182
:101240002046FFF7E3FE20684168B2021143416087
:10125000206841682D4A114041602046FFF701FF98
:1012600020680168254649044035002902DB0168F1
:10127000090406D5697821292FD0E16B09684968EE
:101280006185628D0421002A02D0626C0A43626487
:101290007A070FD5426A606A431C63620270208D30
:1012A000002807D0401E2085608D401E6085606C40
:1012B0000843606400202063A8706063616C0029AB
:1012C0000DD0616C2046FFF71BFF6878282803D1FA
:1012D00039462046FFF77AFFF8BDA16BCEE7E26AF8
:1012E0000B498A4206D0E1626E7028702046FFF7F3
:1012F000DBF8F8BD69786E7022292870204602D08C
:10130000FFF78FF9F8BDFFF78BF9F8BD00E800FE95
:101310000000FFFF70B50026044640340546A67065
:101320006178282029290ED061782A290AD1607095
:101330002220286302212846FFF768FE26702846EF
:10134000FFF76EF970BD60702120286301212846E7
:10135000FFF75CFE26702846FFF763F970BD0000BA
:10136000F7B5044600680E468069C043C0062CD419
:1013700020272546403520688069C04380060FD568
:10138000701CF8D0002E05D0FEF7AEFF0299401A6F
:10139000B042F0D96F700020A87028700320FEBD05
:1013A00021681020C8612068C7612046FFF759FEF8
:1013B00020684168064A11404160042060646F70F3
:1013C0000020A87028700120FEBD0020FEBD000096
:1013D00000E800FEF8B50546044640352878164674
:1013E0000F46012811D0012028703F49F8062DD55D
:1013F000F0062BD5628D1020002A08D02168C86124
:10140000606C04210843606462E00220F8BDE36A76
:1014100001225206934202D0E36A934202D16A78D3
:10142000282A08D0E26A8A4202D06978292907D09E
:101430002168C8614CE039462046FFF7C7FE47E007
:101440002168C8612046FFF70CFE3EE0780717D5FB
:10145000700715D5608D00280BD02068426A606A3D
:10146000431C63620270208D401E2085608D401EEB
:101470006085608D00282BD1E06A884225D127E065
:10148000380706D5300704D539462046FFF7FAFD60
:101490001EE0B8071CD5B0071AD5608D00280CD007
:1014A000606A411C6162216800788862608D401E1C
:1014B0006085208D401E20850AE0E06A0121090632
:1014C000884202D0E06A002802D12046FFF722FFBE
:1014D000B80605D5B00603D539462046FFF7A6FE67
:1014E00000202870F8BD00000000FFFF70B50568FF
:1014F000049C68688905890D1204044E1143194340
:10150000304021430143696070BD0000009800FC39
:10151000F8B51C4617460E46054611E0601C0FD074
:10152000002C05D0FEF7E0FE0699401AA04207D92C
:101530002020403568700020A87028700320F8BD76
:10154000286881693046884304D00020B842E5D03D
:101550000020F8BD0120F9E770B516460D46044697
:101560001AE0324629462046FFF7FAFE002801D04D
:10157000012070BD002D04D0FEF7B6FE801BA842EE
:101580000AD9616C202001436164403460700020FE
:10159000A0702070032070BD20688069C043800661
:1015A000DFD4002070BD70B516460D4604461CE021
:1015B000324629462046FFF7D3FE002801D00120FD
:1015C00070BD681C11D0002D04D0FEF78DFE801B6D
:1015D000A8420AD9616C20200143616440346070E4
:1015E0000020A0702070032070BD20688069C04377
:1015F0008007DDD4002070BD10B5154886B0426963
:10160000012189050A43426142690A400592426903
:1016100049110A43426142690A4005924269490000
:101620000A43426140690B4C0840059000220221A8
:101630002046FEF753FE0220009000210120029177
:101640000391019069462046FEF7A4FD06B010BD47
:10165000001002400004004810B517481549016009
:1016600016494160602181600121C1600021016152
:1016700041618161C1610162FEF7BCFE002803D0B7
:1016800019210FA000F04DFA00210B48FEF732FEA1
:10169000002803D020210AA000F043FA00210648C8
:1016A000FEF74DFE002803D0272105A000F039FAEF
:1016B00010BD000000540040700000200E09002002
:1016C0002E2E5C5372635C6932632E63000000004F
:1016D00010B5124810490160FF2105314160002119
:1016E0000722816012020161C260012241619204FD
:1016F0008261016218224162C26181620722C26274
:10170000016308214163FFF7E7FA002803D018219D
:1017100003A000F006FA10BD003001400C000020CC
:101720002E2E5C5372635C7370692E6300000000A0
:1017300010B50D480B490160E121490241600021CB
:101740008160C16001618161C1610C2201624261FD
:101750004162FFF771FB002803D0152103A000F0C0
:10176000E0F910BD00380140BC0000202E2E5C5373
:1017700072635C756172742E630000007047000034
:101780008307FF22DB0E9A408907090E9940002843
:101790000BDA0007000F0838830808489B00181868
:1017A000C36993430B43C3617047830804489B009C
:1017B0001B181868904308431860704700ED00E05C
:1017C00000E400E07047704710B5FEF72BFFFFF70D
:1017D0002FFB10BD30B595B0032000900120019083
:1017E00003901020049000030990000102250024BA
:1017F0000A9008950B946846FFF7C4F8002803D0B8
:10180000162118A000F08DF907200C900E940121EC
:101810000D950F940CA8FEF7CDFF002803D02321CF
:1018200010A000F07EF9212010901294139410A8BB
:10183000FEF74CFF002803D02B210AA000F071F91D
:10184000FFF74EF87D21C900FEF74AFCFFF7D8FAF2
:101850000420FFF7C7FA00221146501EFEF732FFA0
:1018600015B030BD2E2E5C5372635C7263632E63C1
:101870000000000013480168012211430160416823
:10188000114A114041600168104A1140016001682D
:10189000012292049143016041683F221204914366
:1018A0004160C16A09090901C162016BFF2214325A
:1018B00091430163416B4908490041630021816004
:1018C00070470000001002400CB8FF08FFFFF6FE52
:1018D00010B5818CC90707D001684A6801235B04F1
:1018E0009A43836A1A434A60818C890707D5016845
:1018F0004A6801231B049A43C36A1A434A60818CD5
:10190000490707D501684A6801239B049A43036B82
:101910001A434A60818C090707D501684A68012388
:10192000DB039A43436B1A434A60818CC90607D58F
:101930000268916801231B039943836B19439160EB
:10194000818C890607D501688A6801235B039A4365
:10195000C36B1A438A60818C490612D503685A68A2
:1019600001210905046C8A4322435A60026C8A42B1
:1019700007D10268516803235B059943436C1943FF
:101980005160818C090607D501684A680123DB0490
:10199000806C9A4302434A6010BD0021C166202238
:1019A000603042728272017208467047F8B5044690
:1019B0002369A268E6691A43636910213343002052
:1019C00026681A4333680546394F3B40134333605A
:1019D00023685A6803263603B243E66832435A60E6
:1019E000236AA26926681A43B3680B273F02BB43E8
:1019F0001343B3602F4A126B9207920F06D0012A4D
:101A000008D0022A08D0032A07D101E0002104E00F
:101A1000022102E0042100E008210122E369D2034F
:101A2000934224D100290CD002290DD0042913D0CF
:101A3000082917D00125010909010007400F0843B3
:101A400032E0FEF753FF09E061681B4A480880183E
:101A5000FEF746FB80B2EEE7FEF758FF61684000F4
:101A60004A08F4E76168012248081204EFE70029F8
:101A700008D0022909D004290BD008290ED001254D
:101A80002846F8BDFEF732FF05E061680B4A4808BA
:101A900006E0FEF73BFF61684A0801E0616848081C
:101AA0008018FEF71DFB80B22168C860E8E70000DF
:101AB000F369FFFF001002400024F40000127A00D6
:101AC000FFB581B017460E4604460A9D1DE0681C0E
:101AD0001BD0002D05D0FEF707FC0499401AA84240
:101AE00013D920680168FF22A13291430160206868
:101AF0008168490849008160202060346072A072CA
:101B000000202072032005B0F0BD2068C169304676
:101B1000884304D00020B842D9D00020F3E7012048
:101B2000F9E7FEE710B5024A024900F014F810BDCB
:101B3000751B00080800002002E008C8121F08C139
:101B4000002AFAD170477047002001E001C1121F3E
:101B5000002AFBD17047F8B516460F46044600250B
:101B600003E03946B047641C6D1C20780028F8D18A
:101B70002846F8BD13B56423012269460248FFF7E1
:101B8000B5F900981CBD0000BC00002003B581B071
:101B9000642100910146012302AA0248FEF786FC57
:101BA0000EBD000070000020FEF744FDFFF712FE9E
:101BB000FFF722FDFFF750FDFFF78AFDFFF7B8FDA5
:101BC0000DA0FFF7AFFF13A0FFF7ACFF0AA0FFF7D0
:101BD000A9FF17A0FFF7A6FF002000F039F80020AA
:101BE00000F036F8C820FEF7C7FAF02000F030F811
:101BF000C820FEF7C1FAF2E73D3D3D3D3D3D3D3D8C
:101C00003D3D3D3D3D3D3D3D3D3D3D3D3D3D0A0D67
:101C1000000000003D3D2053544D333246303330F8
:101C2000202B2052464944203D3D0A0D0000000073
:101C30000A0D0A0D53455420504346383537343188
:101C4000204F55545055542048494748200A0D000C
:101C500010B501464020FFF799FF10BD00000000BD
:101C6000000000000102030406070809000000004C
:101C700001020304941C0008000000200C00000076
:101C8000381B0008A01C00080C00002024050000E0
:101C9000481B000800127A0000000000000000004D
:04000005080000B13E
:00000001FF
